:100000000C942A000C9447000C9447000C94470071
:100010000C9447000C9447000C9447000C94470044
:100020000C9447000C9447000C9447000C94490032
:100030000C9447000C9447000C9447000C94470024
:100040000C9447000C9447000C9447000C94470014
:100050000C94470011241FBECFE5D4E0DEBFCDBF16
:1000600010E0A0E6B0E0ECE8F1E002C005900D92EF
:10007000A83DB107D9F720E0A8EDB0E001C01D927E
:10008000A83DB207E1F70E9470000C94C4000C94E4
:1000900000001F920F920FB60F9211248F938CB114
:1000A000809360008F910F900FBE0F901F90189556
:1000B000DC0180E0282F30E0FD0101900020E9F70D
:1000C0003197EA1BFB0B2E173F0748F45D9BFECFD1
:1000D000FD01E20FF31F90819CB98F5FEBCF089574
:1000E00081E084BB15BA8FB5826A8FBD8EB58961F8
:1000F0008EBD80E29FEB97BD86BD81B3806381BBDF
:100100008091D70080BD8091D60089B98AB1886975
:100110008AB986E880BD78948FEF809360008091E3
:1001200060008133E1F78FEB90E00E9458008FE888
:1001300090E00E94580081E690E00E94580084E818
:1001400093E03FEF20916000213331F4803A2FE0BB
:10015000920714F48C599F4F20916000223331F4A0
:10016000803D47E0940714F0845691099BBD8ABDF9
:10017000309360005FE728E341E051502040404069
:0C018000E1F700C00000DECFF894FFCFD4
:10018C00FF456E76696120756E203220736920718F
:10019C00756965726573206D6F7665726C6F206121
:1001AC00206C612064657265636861200A0D0045EE
:1001BC006E76696120756E203120736920717569C6
:1001CC0065726573206D6F7665726C6F2061206C43
:1001DC006120697A71756965726461200A0D005637
:1001EC00656E74696C61646F72207072656E64699F
:0801FC00646F200A0D000C00E5
:00000001FF
