S020000050726F796563746F46696E616C4D6963726F73436869646F2E7372656371
S11300000C942A000C9447000C9447000C9447006D
S11300100C9447000C9447000C9447000C94470040
S11300200C9447000C9447000C9447000C9449002E
S11300300C9447000C9447000C9447000C94470020
S11300400C9447000C9447000C9447000C94470010
S11300500C94470011241FBECFE5D4E0DEBFCDBF12
S113006010E0A0E6B0E0EAEAFAE002C005900D92E2
S1130070A23EB107D9F720E0A2EEB0E001C01D9284
S1130080A23EB207E1F70E9470000C9453050C9451
S113009000001F920F920FB60F9211248F938CB110
S11300A0809360008F910F900FBE0F901F90189552
S11300B0DC0180E0282F30E0FD0101900020E9F709
S11300C03197EA1BFB0B2E173F0748F45D9BFECFCD
S11300D0FD01E20FF31F90819CB98F5FEBCF089570
S11300E0CF93DF93CDB7DEB760970FB6F894DEBF3A
S11300F00FBECDBF81E084BB15BA1ABA87B1806C3C
S113010087B986B1836886B98FB5826A8FBD8EB58B
S113011089618EBD80E29FEB97BD86BD81B380630C
S113012081BB8091D70080BD8091D60089B98AB106
S113013088698AB986E880BD78948FEF80936000DF
S11301408FEB90E00E9458008FE890E00E945800E6
S113015081E690E00E94580004E813E0AA24A394E6
S11301600F2EF8EDCF2EF0E0DF2EF02DCE0101960C
S11301707C01BB24BA94369A3699FECF64B185B11A
S113018070E080E090E00E94470120E030E040E829
S11301905EE30E94B0012B013C0120E030E048EC1A
S11301A051E40E94AB01882314F0A5BA01C015BA2A
S11301B0809160008133D9F4003A9FE0190714F468
S11301C00C591F4FC301B2010E940F017F936F931B
S11301D0DF92CF92FF92EF920E946902C7010E94C0
S11301E058000F900F900F900F900F900F908091E8
S11301F06000823331F4003D27E0120714F0045606
S113020011091BBD0ABDB09260008FE798E321E09D
S1130210815090402040E1F700C00000ACCF0E9424
S113022016016894B1110C94A50108950E948A01E5
S113023088F09F5798F0B92F9927B751B0F0E1F0A3
S1130240660F771F881F991F1AF0BA95C9F714C053
S1130250B13091F00E94A401B1E008950C94A4017E
S1130260672F782F8827B85F39F0B93FCCF386958C
S113027077956795B395D9F73EF4909580957095E9
S113028061957F4F8F4F9F4F0895E89409C097FB66
S11302903EF490958095709561957F4F8F4F9F4F59
S11302A09923A9F0F92F96E9BB279395F69587959D
S11302B077956795B795F111F8CFFAF4BB0F11F460
S11302C060FF1BC06F5F7F4F8F4F9F4F16C0882307
S11302D011F096E911C0772321F09EE8872F762F3D
S11302E005C0662371F096E8862F70E060E02AF07E
S11302F09A95660F771F881FDAF7880F969587956A
S113030097F9089557FD9058440F551F59F05F3FD2
S113031071F04795880F97FB991F61F09F3F79F023
S113032087950895121613061406551FF2CF4695A5
S1130330F1DF08C0161617061806991FF1CF869527
S11303407105610508940895E894BB27662777270B
S1130350CB0197F908950E941D0208F48FEF0895C8
S11303600E94C3010C9458020E944A0238F00E9471
S1130370510220F0952311F00C9441020C94470291
S113038011240C94A5010E94820170F3959FC1F37E
S1130390950F50E0551F629FF001729FBB27F00D2F
S11303A0B11D639FAA27F00DB11DAA1F649F662784
S11303B0B00DA11D661F829F2227B00DA11D621FD3
S11303C0739FB00DA11D621F839FA00D611D221F8D
S11303D0749F3327A00D611D231F849F600D211D71
S11303E0822F762F6A2F11249F5750409AF0F1F0F4
S11303F088234AF0EE0FFF1FBB1F661F771F881F5D
S113040091505040A9F79E3F510580F00C94410251
S11304100C94A5015F3FE4F3983ED4F38695779559
S11304206795B795F795E7959F5FC1F7FE2B880F02
S1130430911D9695879597F90895990F0008550F82
S1130440AA0BE0E8FEEF16161706E807F907C0F056
S113045012161306E407F50798F0621B730B840B5E
S1130460950B39F40A2661F0232B242B252B21F438
S113047008950A2609F4A140A6958FEF811D811DD8
S1130480089597F99F6780E870E060E008959FEF12
S113049080EC089500240A94161617061806090617
S11304A0089500240A9412161306140605060895E6
S11304B0092E0394000C11F4882352F0BB0F40F46E
S11304C0BF2B11F460FF04C06F5F7F4F8F4F9F4FAE
S11304D00895AEE0B0E0EFE6F2E00C942A050D8951
S11304E01E8986E08C831A8309838FEF9FE79E839E
S11304F08D83AE01475E5F4F6F89788DCE01019683
S11305000E948B02EF81F885E00FF11F10822E9676
S1130510E4E00C944605ABE0B0E0E1E9F2E00C94D1
S11305201C056C017B018A01FC0117821682838100
S113053081FFCCC1CE0101963C01F6019381F70104
S113054093FD859193FF81917F01882309F4BAC1BA
S1130550853239F493FD859193FF81917F01853232
S113056029F4B60190E00E948204E7CF912C212C5B
S1130570312CFFE1F315D8F08B3279F038F4803266
S113058079F08332A1F4232D20611DC08D3261F0F6
S1130590803369F4232D216016C0832D8260382EA8
S11305A0E32DE4603E2E2AC0F32DF8601DC037FC15
S11305B02DC020ED280F2A3040F08E32B9F436FCDD
S11305C081C1232D2064322E19C036FE06C08AE074
S11305D0989E200D1124922E11C0EAE02E9E200D2B
S11305E01124222EF32DF0623F2E08C08C3621F404
S11305F0832D8068382E02C0883641F4F70193FDBC
S1130600859193FF81917F018111B3CF982F9F7DB5
S11306109554933028F40C5F1F4F9FE399830DC0CA
S1130620833631F0833771F0833509F059C021C026
S1130630F801808189830E5F1F4F88248394912C55
S1130640530113C02801F2E04F0E511CF801A080A1
S1130650B18036FE03C0692D70E002C06FEF7FEFFA
S1130660C5010E9477044C018201F32DFF773F2ED0
S113067016C0280122E0420E511CF801A080B1806E
S113068036FE03C0692D70E002C06FEF7FEFC50135
S11306900E946C044C01F32DF0683F2E820133FC60
S11306A01BC0822D90E088169906B0F4B60180E252
S11306B090E00E9482042A94F4CFF50137FC8591DE
S11306C037FE81915F01B60190E00E9482042110FF
S11306D02A9421E0821A91088114910471F7E8C0E8
S11306E0843611F0893641F5F80137FE07C0608180
S11306F07181828193810C5F1F4F08C06081718179
S1130700072E000C880B990B0E5F1F4FF32DFF76FD
S11307103F2E97FF09C090958095709561957F4F06
S11307208F4F9F4FF0683F2E2AE030E0A3010E94D4
S1130730BE04882E861845C0853731F4232D2F7EBC
S1130740B22E2AE030E025C0932D997FB92E8F3642
S1130750C1F018F4883579F0B5C0803719F08837BE
S113076021F0B0C0E92FE061BE2EB4FE0DC0FB2D18
S1130770F460BF2E09C034FE0AC0292F2660B22EB1
S113078006C028E030E005C020E130E002C020E1EE
S113079032E0F801B7FE07C06081718182819381E4
S11307A00C5F1F4F06C06081718180E090E00E5F96
S11307B01F4FA3010E94BE04882E8618FB2DFF77CD
S11307C03F2E36FE0DC0232D2E7FA22E891458F401
S11307D034FE0BC032FC09C0832D8E7EA82E05C0CA
S11307E0B82CA32C03C0B82C01C0B92CA4FE0FC094
S11307F0FE01E80DF11D8081803321F49A2D997E4C
S1130800A92E09C0A2FE06C0B394B39404C08A2DD5
S1130810867809F0B394A3FC11C0A0FE06C0B214FC
S113082088F4280C922C9B180EC0B21460F4B60104
S113083080E290E00E948204B394F7CFB21418F4DB
S11308402B1802C0982C212CA4FE10C0B60180E302
S113085090E00E948204A2FE17C0A1FC03C088E7B6
S113086090E002C088E590E0B6010CC08A2D86783D
S113087059F0A1FE02C08BE201C080E2A7FC8DE228
S1130880B60190E00E948204891438F4B60180E332
S113089090E00E9482049A94F7CF8A94F301E80DC1
S11308A0F11D8081B60190E00E9482048110F5CF91
S11308B0222009F442CEB60180E290E00E94820434
S11308C02A94F6CFF6018681978102C08FEF9FEFBD
S11308D02B96E2E10C943805FC01059061507040C0
S11308E00110D8F7809590958E0F9F1F0895FC01F5
S11308F06150704001900110D8F7809590958E0F4B
S11309009F1F08950F931F93CF93DF93FB012381C0
S113091021FD03C08FEF9FEF2CC022FF16C046813C
S11309205781248135814217530744F4A081B18152
S11309309D012F5F3F4F318320838C932681378124
S11309402F5F3F4F3783268314C08B01EC01FB01DB
S11309500084F185E02D0995892BE1F6D8011696DE
S11309608D919C911797019617969C938E93169749
S1130970CE01DF91CF911F910F910895FA01AA271B
S1130980283051F1203181F1E8946F936E7F6E5FCE
S11309907F4F8F4F9F4FAF4FB1E03ED0B4E03CD07C
S11309A0670F781F891F9A1FA11D680F791F8A1F5F
S11309B0911DA11D6A0F711D811D911DA11D20D0C6
S11309C009F468943F912AE0269F11243019305D80
S11309D03193DEF6CF010895462F4770405D419371
S11309E0B3E00FD0C9F7F6CF462F4F70405D4A33BE
S11309F018F0495D31FD4052419302D0A9F7EACF86
S1130A00B4E0A6959795879577956795BA95C9F7B4
S1130A1000976105710508959B01AC010A2E0694A7
S1130A205795479537952795BA95C9F7620F731F60
S1130A30841F951FA01D08952F923F924F925F929D
S1130A406F927F928F929F92AF92BF92CF92DF92DA
S1130A50EF92FF920F931F93CF93DF93CDB7DEB73F
S1130A60CA1BDB0B0FB6F894DEBF0FBECDBF0994D3
S1130A702A88398848885F846E847D848C849B842A
S1130A80AA84B984C884DF80EE80FD800C811B8138
S1130A90AA81B981CE0FD11D0FB6F894DEBF0FBE67
S10D0AA0CDBFED010895F894FFCFD7
S1130AAAFF456E76696120756E2032207369207164
S1130ABA756965726573206D6F7665726C6F2061F6
S1130ACA206C612064657265636861200A0D0045C3
S1130ADA6E76696120756E2031207369207175699B
S1130AEA65726573206D6F7665726C6F2061206C18
S1130AFA6120697A71756965726461200A0D00560C
S1130B0A656E74696C61646F72207072656E646973
S1130B1A646F200A0D000C002564206176696F6EEB
S1050B2A0000C5
S9030000FC
